{
  "_format": "hh3-artifact-1",
  "contractName": "MindchainNFT",
  "sourceName": "contracts/MindchainNFT.sol",
  "abi": [
    {
      "inputs": [
        {
          "internalType": "address",
          "name": "initialOwner",
          "type": "address"
        }
      ],
      "stateMutability": "nonpayable",
      "type": "constructor"
    },
    {
      "inputs": [],
      "name": "ERC721EnumerableForbiddenBatchMint",
      "type": "error"
    },
    {
      "inputs": [
        {
          "internalType": "address",
          "name": "sender",
          "type": "address"
        },
        {
          "internalType": "uint256",
          "name": "tokenId",
          "type": "uint256"
        },
        {
          "internalType": "address",
          "name": "owner",
          "type": "address"
        }
      ],
      "name": "ERC721IncorrectOwner",
      "type": "error"
    },
    {
      "inputs": [
        {
          "internalType": "address",
          "name": "operator",
          "type": "address"
        },
        {
          "internalType": "uint256",
          "name": "tokenId",
          "type": "uint256"
        }
      ],
      "name": "ERC721InsufficientApproval",
      "type": "error"
    },
    {
      "inputs": [
        {
          "internalType": "address",
          "name": "approver",
          "type": "address"
        }
      ],
      "name": "ERC721InvalidApprover",
      "type": "error"
    },
    {
      "inputs": [
        {
          "internalType": "address",
          "name": "operator",
          "type": "address"
        }
      ],
      "name": "ERC721InvalidOperator",
      "type": "error"
    },
    {
      "inputs": [
        {
          "internalType": "address",
          "name": "owner",
          "type": "address"
        }
      ],
      "name": "ERC721InvalidOwner",
      "type": "error"
    },
    {
      "inputs": [
        {
          "internalType": "address",
          "name": "receiver",
          "type": "address"
        }
      ],
      "name": "ERC721InvalidReceiver",
      "type": "error"
    },
    {
      "inputs": [
        {
          "internalType": "address",
          "name": "sender",
          "type": "address"
        }
      ],
      "name": "ERC721InvalidSender",
      "type": "error"
    },
    {
      "inputs": [
        {
          "internalType": "uint256",
          "name": "tokenId",
          "type": "uint256"
        }
      ],
      "name": "ERC721NonexistentToken",
      "type": "error"
    },
    {
      "inputs": [
        {
          "internalType": "address",
          "name": "owner",
          "type": "address"
        },
        {
          "internalType": "uint256",
          "name": "index",
          "type": "uint256"
        }
      ],
      "name": "ERC721OutOfBoundsIndex",
      "type": "error"
    },
    {
      "inputs": [
        {
          "internalType": "address",
          "name": "owner",
          "type": "address"
        }
      ],
      "name": "OwnableInvalidOwner",
      "type": "error"
    },
    {
      "inputs": [
        {
          "internalType": "address",
          "name": "account",
          "type": "address"
        }
      ],
      "name": "OwnableUnauthorizedAccount",
      "type": "error"
    },
    {
      "anonymous": false,
      "inputs": [
        {
          "indexed": true,
          "internalType": "address",
          "name": "owner",
          "type": "address"
        },
        {
          "indexed": true,
          "internalType": "address",
          "name": "approved",
          "type": "address"
        },
        {
          "indexed": true,
          "internalType": "uint256",
          "name": "tokenId",
          "type": "uint256"
        }
      ],
      "name": "Approval",
      "type": "event"
    },
    {
      "anonymous": false,
      "inputs": [
        {
          "indexed": true,
          "internalType": "address",
          "name": "owner",
          "type": "address"
        },
        {
          "indexed": true,
          "internalType": "address",
          "name": "operator",
          "type": "address"
        },
        {
          "indexed": false,
          "internalType": "bool",
          "name": "approved",
          "type": "bool"
        }
      ],
      "name": "ApprovalForAll",
      "type": "event"
    },
    {
      "anonymous": false,
      "inputs": [
        {
          "indexed": false,
          "internalType": "uint256",
          "name": "_fromTokenId",
          "type": "uint256"
        },
        {
          "indexed": false,
          "internalType": "uint256",
          "name": "_toTokenId",
          "type": "uint256"
        }
      ],
      "name": "BatchMetadataUpdate",
      "type": "event"
    },
    {
      "anonymous": false,
      "inputs": [
        {
          "indexed": false,
          "internalType": "uint256",
          "name": "_tokenId",
          "type": "uint256"
        }
      ],
      "name": "MetadataUpdate",
      "type": "event"
    },
    {
      "anonymous": false,
      "inputs": [
        {
          "indexed": true,
          "internalType": "address",
          "name": "owner",
          "type": "address"
        },
        {
          "indexed": true,
          "internalType": "uint256",
          "name": "tokenId",
          "type": "uint256"
        },
        {
          "indexed": false,
          "internalType": "string",
          "name": "metadataCid",
          "type": "string"
        }
      ],
      "name": "MindchainMinted",
      "type": "event"
    },
    {
      "anonymous": false,
      "inputs": [
        {
          "indexed": true,
          "internalType": "address",
          "name": "previousOwner",
          "type": "address"
        },
        {
          "indexed": true,
          "internalType": "address",
          "name": "newOwner",
          "type": "address"
        }
      ],
      "name": "OwnershipTransferred",
      "type": "event"
    },
    {
      "anonymous": false,
      "inputs": [
        {
          "indexed": true,
          "internalType": "address",
          "name": "from",
          "type": "address"
        },
        {
          "indexed": true,
          "internalType": "address",
          "name": "to",
          "type": "address"
        },
        {
          "indexed": true,
          "internalType": "uint256",
          "name": "tokenId",
          "type": "uint256"
        }
      ],
      "name": "Transfer",
      "type": "event"
    },
    {
      "inputs": [
        {
          "internalType": "address",
          "name": "to",
          "type": "address"
        },
        {
          "internalType": "uint256",
          "name": "tokenId",
          "type": "uint256"
        }
      ],
      "name": "approve",
      "outputs": [],
      "stateMutability": "nonpayable",
      "type": "function"
    },
    {
      "inputs": [
        {
          "internalType": "address",
          "name": "owner",
          "type": "address"
        }
      ],
      "name": "balanceOf",
      "outputs": [
        {
          "internalType": "uint256",
          "name": "",
          "type": "uint256"
        }
      ],
      "stateMutability": "view",
      "type": "function"
    },
    {
      "inputs": [
        {
          "internalType": "uint256",
          "name": "tokenId",
          "type": "uint256"
        }
      ],
      "name": "burn",
      "outputs": [],
      "stateMutability": "nonpayable",
      "type": "function"
    },
    {
      "inputs": [
        {
          "internalType": "uint256",
          "name": "tokenId",
          "type": "uint256"
        }
      ],
      "name": "getApproved",
      "outputs": [
        {
          "internalType": "address",
          "name": "",
          "type": "address"
        }
      ],
      "stateMutability": "view",
      "type": "function"
    },
    {
      "inputs": [
        {
          "internalType": "address",
          "name": "owner",
          "type": "address"
        },
        {
          "internalType": "address",
          "name": "operator",
          "type": "address"
        }
      ],
      "name": "isApprovedForAll",
      "outputs": [
        {
          "internalType": "bool",
          "name": "",
          "type": "bool"
        }
      ],
      "stateMutability": "view",
      "type": "function"
    },
    {
      "inputs": [
        {
          "internalType": "address",
          "name": "to",
          "type": "address"
        },
        {
          "internalType": "string",
          "name": "uri",
          "type": "string"
        }
      ],
      "name": "mintMindchain",
      "outputs": [
        {
          "internalType": "uint256",
          "name": "",
          "type": "uint256"
        }
      ],
      "stateMutability": "nonpayable",
      "type": "function"
    },
    {
      "inputs": [],
      "name": "name",
      "outputs": [
        {
          "internalType": "string",
          "name": "",
          "type": "string"
        }
      ],
      "stateMutability": "view",
      "type": "function"
    },
    {
      "inputs": [],
      "name": "owner",
      "outputs": [
        {
          "internalType": "address",
          "name": "",
          "type": "address"
        }
      ],
      "stateMutability": "view",
      "type": "function"
    },
    {
      "inputs": [
        {
          "internalType": "uint256",
          "name": "tokenId",
          "type": "uint256"
        }
      ],
      "name": "ownerOf",
      "outputs": [
        {
          "internalType": "address",
          "name": "",
          "type": "address"
        }
      ],
      "stateMutability": "view",
      "type": "function"
    },
    {
      "inputs": [],
      "name": "renounceOwnership",
      "outputs": [],
      "stateMutability": "view",
      "type": "function"
    },
    {
      "inputs": [
        {
          "internalType": "address",
          "name": "from",
          "type": "address"
        },
        {
          "internalType": "address",
          "name": "to",
          "type": "address"
        },
        {
          "internalType": "uint256",
          "name": "tokenId",
          "type": "uint256"
        }
      ],
      "name": "safeTransferFrom",
      "outputs": [],
      "stateMutability": "nonpayable",
      "type": "function"
    },
    {
      "inputs": [
        {
          "internalType": "address",
          "name": "from",
          "type": "address"
        },
        {
          "internalType": "address",
          "name": "to",
          "type": "address"
        },
        {
          "internalType": "uint256",
          "name": "tokenId",
          "type": "uint256"
        },
        {
          "internalType": "bytes",
          "name": "data",
          "type": "bytes"
        }
      ],
      "name": "safeTransferFrom",
      "outputs": [],
      "stateMutability": "nonpayable",
      "type": "function"
    },
    {
      "inputs": [
        {
          "internalType": "address",
          "name": "operator",
          "type": "address"
        },
        {
          "internalType": "bool",
          "name": "approved",
          "type": "bool"
        }
      ],
      "name": "setApprovalForAll",
      "outputs": [],
      "stateMutability": "nonpayable",
      "type": "function"
    },
    {
      "inputs": [
        {
          "internalType": "bytes4",
          "name": "interfaceId",
          "type": "bytes4"
        }
      ],
      "name": "supportsInterface",
      "outputs": [
        {
          "internalType": "bool",
          "name": "",
          "type": "bool"
        }
      ],
      "stateMutability": "view",
      "type": "function"
    },
    {
      "inputs": [],
      "name": "symbol",
      "outputs": [
        {
          "internalType": "string",
          "name": "",
          "type": "string"
        }
      ],
      "stateMutability": "view",
      "type": "function"
    },
    {
      "inputs": [
        {
          "internalType": "uint256",
          "name": "index",
          "type": "uint256"
        }
      ],
      "name": "tokenByIndex",
      "outputs": [
        {
          "internalType": "uint256",
          "name": "",
          "type": "uint256"
        }
      ],
      "stateMutability": "view",
      "type": "function"
    },
    {
      "inputs": [
        {
          "internalType": "address",
          "name": "owner",
          "type": "address"
        },
        {
          "internalType": "uint256",
          "name": "index",
          "type": "uint256"
        }
      ],
      "name": "tokenOfOwnerByIndex",
      "outputs": [
        {
          "internalType": "uint256",
          "name": "",
          "type": "uint256"
        }
      ],
      "stateMutability": "view",
      "type": "function"
    },
    {
      "inputs": [
        {
          "internalType": "uint256",
          "name": "tokenId",
          "type": "uint256"
        }
      ],
      "name": "tokenURI",
      "outputs": [
        {
          "internalType": "string",
          "name": "",
          "type": "string"
        }
      ],
      "stateMutability": "view",
      "type": "function"
    },
    {
      "inputs": [],
      "name": "totalSupply",
      "outputs": [
        {
          "internalType": "uint256",
          "name": "",
          "type": "uint256"
        }
      ],
      "stateMutability": "view",
      "type": "function"
    },
    {
      "inputs": [
        {
          "internalType": "address",
          "name": "from",
          "type": "address"
        },
        {
          "internalType": "address",
          "name": "to",
          "type": "address"
        },
        {
          "internalType": "uint256",
          "name": "tokenId",
          "type": "uint256"
        }
      ],
      "name": "transferFrom",
      "outputs": [],
      "stateMutability": "nonpayable",
      "type": "function"
    },
    {
      "inputs": [
        {
          "internalType": "address",
          "name": "newOwner",
          "type": "address"
        }
      ],
      "name": "transferOwnership",
      "outputs": [],
      "stateMutability": "nonpayable",
      "type": "function"
    }
  ],
  "bytecode": "0x608060405234801561000f575f5ffd5b50604051611a66380380611a6683398101604081905261002e91610119565b806040518060400160405280600981526020016826b4b73231b430b4b760b91b815250604051806040016040528060038152602001624d444360e81b815250815f908161007b91906101de565b50600161008882826101de565b5050506001600160a01b0381166100b857604051631e4fbdf760e01b81525f600482015260240160405180910390fd5b6100c1816100c8565b5050610298565b600b80546001600160a01b038381166001600160a01b0319831681179093556040519116919082907f8be0079c531659141344cd1fd0a4f28419497f9722a3daafe3b4186f6b6457e0905f90a35050565b5f60208284031215610129575f5ffd5b81516001600160a01b038116811461013f575f5ffd5b9392505050565b634e487b7160e01b5f52604160045260245ffd5b600181811c9082168061016e57607f821691505b60208210810361018c57634e487b7160e01b5f52602260045260245ffd5b50919050565b601f8211156101d957805f5260205f20601f840160051c810160208510156101b75750805b601f840160051c820191505b818110156101d6575f81556001016101c3565b50505b505050565b81516001600160401b038111156101f7576101f7610146565b61020b81610205845461015a565b84610192565b6020601f82116001811461023d575f83156102265750848201515b5f19600385901b1c1916600184901b1784556101d6565b5f84815260208120601f198516915b8281101561026c578785015182556020948501946001909201910161024c565b508482101561028957868401515f19600387901b60f8161c191681555b50505050600190811b01905550565b6117c1806102a55f395ff3fe608060405234801561000f575f5ffd5b5060043610610132575f3560e01c80634f6ccce7116100b457806395d89b411161007957806395d89b4114610276578063a22cb4651461027e578063b88d4fde14610291578063c87b56dd146102a4578063e985e9c5146102b7578063f2fde38b146102ca575f5ffd5b80634f6ccce7146102245780636352211e1461023757806370a082311461024a578063715018a61461025d5780638da5cb5b14610265575f5ffd5b806323b872dd116100fa57806323b872dd146101c55780632f745c59146101d857806342842e0e146101eb57806342966c68146101fe5780634b90537a14610211575f5ffd5b806301ffc9a71461013657806306fdde031461015e578063081812fc14610173578063095ea7b31461019e57806318160ddd146101b3575b5f5ffd5b610149610144366004611299565b6102dd565b60405190151581526020015b60405180910390f35b6101666102ed565b60405161015591906112e2565b6101866101813660046112f4565b61037c565b6040516001600160a01b039091168152602001610155565b6101b16101ac366004611326565b6103a3565b005b6008545b604051908152602001610155565b6101b16101d336600461134e565b6103b2565b6101b76101e6366004611326565b610440565b6101b16101f936600461134e565b6104a3565b6101b161020c3660046112f4565b6104c2565b6101b761021f366004611413565b6104cd565b6101b76102323660046112f4565b610501565b6101866102453660046112f4565b610556565b6101b7610258366004611471565b610560565b6101b16105a5565b600b546001600160a01b0316610186565b6101666105f5565b6101b161028c36600461148a565b610604565b6101b161029f3660046114c3565b61060f565b6101666102b23660046112f4565b610627565b6101496102c536600461153a565b610632565b6101b16102d8366004611471565b61065f565b5f6102e78261069c565b92915050565b60605f80546102fb9061156b565b80601f01602080910402602001604051908101604052809291908181526020018280546103279061156b565b80156103725780601f1061034957610100808354040283529160200191610372565b820191905f5260205f20905b81548152906001019060200180831161035557829003601f168201915b5050505050905090565b5f610386826106c0565b505f828152600460205260409020546001600160a01b03166102e7565b6103ae8282336106f8565b5050565b6001600160a01b0382166103e057604051633250574960e11b81525f60048201526024015b60405180910390fd5b5f6103ec838333610705565b9050836001600160a01b0316816001600160a01b03161461043a576040516364283d7b60e01b81526001600160a01b03808616600483015260248201849052821660448201526064016103d7565b50505050565b5f61044a83610560565b821061047b5760405163295f44f760e21b81526001600160a01b0384166004820152602481018390526044016103d7565b506001600160a01b03919091165f908152600660209081526040808320938352929052205490565b6104bd83838360405180602001604052805f81525061060f565b505050565b6103ae5f8233610705565b600c80545f91829190826104e0836115b7565b9190505590506104f08482610719565b6104fa8184610732565b9392505050565b5f61050b60085490565b82106105335760405163295f44f760e21b81525f6004820152602481018390526044016103d7565b60088281548110610546576105466115cf565b905f5260205f2001549050919050565b5f6102e7826106c0565b5f6001600160a01b03821661058a576040516322718ad960e21b81525f60048201526024016103d7565b506001600160a01b03165f9081526003602052604090205490565b6105ad610781565b60405162461bcd60e51b815260206004820152601a60248201527f72656e6f756e63654f776e6572736869702064697361626c656400000000000060448201526064016103d7565b6060600180546102fb9061156b565b6103ae3383836107b0565b61061a8484846103b2565b61043a338585858561084e565b60606102e782610976565b6001600160a01b039182165f90815260056020908152604080832093909416825291909152205460ff1690565b610667610781565b6001600160a01b03811661069057604051631e4fbdf760e01b81525f60048201526024016103d7565b61069981610a79565b50565b5f6001600160e01b03198216632483248360e11b14806102e757506102e782610aca565b5f818152600260205260408120546001600160a01b0316806102e757604051637e27328960e01b8152600481018490526024016103d7565b6104bd8383836001610aee565b5f610711848484610bf2565b949350505050565b6103ae828260405180602001604052805f815250610cbd565b5f828152600a602052604090206107498282611627565b506040518281527ff8e1a15aba9398e019f0b49df1a4fde98ee17ae345cb5f6b5e2c27f5033e8ce79060200160405180910390a15050565b600b546001600160a01b031633146107ae5760405163118cdaa760e01b81523360048201526024016103d7565b565b6001600160a01b0382166107e257604051630b61174360e31b81526001600160a01b03831660048201526024016103d7565b6001600160a01b038381165f81815260056020908152604080832094871680845294825291829020805460ff191686151590811790915591519182527f17307eab39ab6107e8899845ad3d59bd9653f200f220920489ca2b5937696c31910160405180910390a3505050565b6001600160a01b0383163b1561096f57604051630a85bd0160e11b81526001600160a01b0384169063150b7a02906108909088908890879087906004016116e2565b6020604051808303815f875af19250505080156108ca575060408051601f3d908101601f191682019092526108c79181019061171e565b60015b610931573d8080156108f7576040519150601f19603f3d011682016040523d82523d5f602084013e6108fc565b606091505b5080515f0361092957604051633250574960e11b81526001600160a01b03851660048201526024016103d7565b805160208201fd5b6001600160e01b03198116630a85bd0160e11b1461096d57604051633250574960e11b81526001600160a01b03851660048201526024016103d7565b505b5050505050565b6060610981826106c0565b505f828152600a60205260408120805461099a9061156b565b80601f01602080910402602001604051908101604052809291908181526020018280546109c69061156b565b8015610a115780601f106109e857610100808354040283529160200191610a11565b820191905f5260205f20905b8154815290600101906020018083116109f457829003601f168201915b505050505090505f610a2d60408051602081019091525f815290565b905080515f03610a3e575092915050565b815115610a70578082604051602001610a58929190611750565b60405160208183030381529060405292505050919050565b61071184610cd4565b600b80546001600160a01b038381166001600160a01b0319831681179093556040519116919082907f8be0079c531659141344cd1fd0a4f28419497f9722a3daafe3b4186f6b6457e0905f90a35050565b5f6001600160e01b0319821663780e9d6360e01b14806102e757506102e782610d44565b8080610b0257506001600160a01b03821615155b15610bc3575f610b11846106c0565b90506001600160a01b03831615801590610b3d5750826001600160a01b0316816001600160a01b031614155b8015610b505750610b4e8184610632565b155b15610b795760405163a9fbf51f60e01b81526001600160a01b03841660048201526024016103d7565b8115610bc15783856001600160a01b0316826001600160a01b03167f8c5be1e5ebec7d5bd14f71427d1e84f3dd0314c0f7b2291e5b200ac8c7c3b92560405160405180910390a45b505b50505f90815260046020526040902080546001600160a01b0319166001600160a01b0392909216919091179055565b5f5f610bff858585610d93565b90506001600160a01b038116610c5b57610c5684600880545f838152600960205260408120829055600182018355919091527ff3f7a9fe364faab93b216da50a3214154f22a0a2b415b23a84c8169e8b636ee30155565b610c7e565b846001600160a01b0316816001600160a01b031614610c7e57610c7e8185610e85565b6001600160a01b038516610c9a57610c9584610f02565b610711565b846001600160a01b0316816001600160a01b031614610711576107118585610fa9565b610cc78383610ff7565b6104bd335f85858561084e565b6060610cdf826106c0565b505f610cf560408051602081019091525f815290565b90505f815111610d135760405180602001604052805f8152506104fa565b80610d1d84611058565b604051602001610d2e929190611750565b6040516020818303038152906040529392505050565b5f6001600160e01b031982166380ac58cd60e01b1480610d7457506001600160e01b03198216635b5e139f60e01b145b806102e757506301ffc9a760e01b6001600160e01b03198316146102e7565b5f828152600260205260408120546001600160a01b0390811690831615610dbf57610dbf8184866110e8565b6001600160a01b03811615610df957610dda5f855f5f610aee565b6001600160a01b0381165f90815260036020526040902080545f190190555b6001600160a01b03851615610e27576001600160a01b0385165f908152600360205260409020805460010190555b5f8481526002602052604080822080546001600160a01b0319166001600160a01b0389811691821790925591518793918516917fddf252ad1be2c89b69c2b068fc378daa952ba7f163c4a11628f55a4df523b3ef91a4949350505050565b5f610e8f83610560565b5f838152600760209081526040808320546001600160a01b0388168452600690925290912091925090818314610ee4575f83815260208281526040808320548584528184208190558352600790915290208290555b5f938452600760209081526040808620869055938552525081205550565b6008545f90610f1390600190611764565b5f8381526009602052604081205460088054939450909284908110610f3a57610f3a6115cf565b905f5260205f20015490508060088381548110610f5957610f596115cf565b5f918252602080832090910192909255828152600990915260408082208490558582528120556008805480610f9057610f90611777565b600190038181905f5260205f20015f9055905550505050565b5f6001610fb584610560565b610fbf9190611764565b6001600160a01b039093165f908152600660209081526040808320868452825280832085905593825260079052919091209190915550565b6001600160a01b03821661102057604051633250574960e11b81525f60048201526024016103d7565b5f61102c83835f610705565b90506001600160a01b038116156104bd576040516339e3563760e11b81525f60048201526024016103d7565b60605f6110648361114c565b60010190505f8167ffffffffffffffff81111561108357611083611388565b6040519080825280601f01601f1916602001820160405280156110ad576020820181803683370190505b5090508181016020015b5f19016f181899199a1a9b1b9c1cb0b131b232b360811b600a86061a8153600a85049450846110b757509392505050565b6110f3838383611223565b6104bd576001600160a01b03831661112157604051637e27328960e01b8152600481018290526024016103d7565b60405163177e802f60e01b81526001600160a01b0383166004820152602481018290526044016103d7565b5f8072184f03e93ff9f4daa797ed6e38ed64bf6a1f0160401b831061118a5772184f03e93ff9f4daa797ed6e38ed64bf6a1f0160401b830492506040015b6d04ee2d6d415b85acef810000000083106111b6576d04ee2d6d415b85acef8100000000830492506020015b662386f26fc1000083106111d457662386f26fc10000830492506010015b6305f5e10083106111ec576305f5e100830492506008015b612710831061120057612710830492506004015b60648310611212576064830492506002015b600a83106102e75760010192915050565b5f6001600160a01b038316158015906107115750826001600160a01b0316846001600160a01b0316148061125c575061125c8484610632565b806107115750505f908152600460205260409020546001600160a01b03908116911614919050565b6001600160e01b031981168114610699575f5ffd5b5f602082840312156112a9575f5ffd5b81356104fa81611284565b5f81518084528060208401602086015e5f602082860101526020601f19601f83011685010191505092915050565b602081525f6104fa60208301846112b4565b5f60208284031215611304575f5ffd5b5035919050565b80356001600160a01b0381168114611321575f5ffd5b919050565b5f5f60408385031215611337575f5ffd5b6113408361130b565b946020939093013593505050565b5f5f5f60608486031215611360575f5ffd5b6113698461130b565b92506113776020850161130b565b929592945050506040919091013590565b634e487b7160e01b5f52604160045260245ffd5b5f5f67ffffffffffffffff8411156113b6576113b6611388565b50604051601f19601f85018116603f0116810181811067ffffffffffffffff821117156113e5576113e5611388565b6040528381529050808284018510156113fc575f5ffd5b838360208301375f60208583010152509392505050565b5f5f60408385031215611424575f5ffd5b61142d8361130b565b9150602083013567ffffffffffffffff811115611448575f5ffd5b8301601f81018513611458575f5ffd5b6114678582356020840161139c565b9150509250929050565b5f60208284031215611481575f5ffd5b6104fa8261130b565b5f5f6040838503121561149b575f5ffd5b6114a48361130b565b9150602083013580151581146114b8575f5ffd5b809150509250929050565b5f5f5f5f608085870312156114d6575f5ffd5b6114df8561130b565b93506114ed6020860161130b565b925060408501359150606085013567ffffffffffffffff81111561150f575f5ffd5b8501601f8101871361151f575f5ffd5b61152e8782356020840161139c565b91505092959194509250565b5f5f6040838503121561154b575f5ffd5b6115548361130b565b91506115626020840161130b565b90509250929050565b600181811c9082168061157f57607f821691505b60208210810361159d57634e487b7160e01b5f52602260045260245ffd5b50919050565b634e487b7160e01b5f52601160045260245ffd5b5f600182016115c8576115c86115a3565b5060010190565b634e487b7160e01b5f52603260045260245ffd5b601f8211156104bd57805f5260205f20601f840160051c810160208510156116085750805b601f840160051c820191505b8181101561096f575f8155600101611614565b815167ffffffffffffffff81111561164157611641611388565b6116558161164f845461156b565b846115e3565b6020601f821160018114611687575f83156116705750848201515b5f19600385901b1c1916600184901b17845561096f565b5f84815260208120601f198516915b828110156116b65787850151825560209485019460019092019101611696565b50848210156116d357868401515f19600387901b60f8161c191681555b50505050600190811b01905550565b6001600160a01b03858116825284166020820152604081018390526080606082018190525f90611714908301846112b4565b9695505050505050565b5f6020828403121561172e575f5ffd5b81516104fa81611284565b5f81518060208401855e5f93019283525090919050565b5f61071161175e8386611739565b84611739565b818103818111156102e7576102e76115a3565b634e487b7160e01b5f52603160045260245ffdfea264697066735822122092710914246826d96f9e571d92e79161e94475f82d48941892e627a1fb96e47a64736f6c634300081c0033",
  "linkReferences": {},
  "deployedLinkReferences": {},
  "immutableReferences": {},
  "inputSourceName": "project/contracts/MindchainNFT.sol",
  "buildInfoId": "solc-0_8_28-8292da817f197da2cb203800a32edafdf584509a"
}