{
  "_format": "hh3-artifact-1",
  "contractName": "MindchainContract",
  "sourceName": "contracts/MindchainContract.sol",
  "abi": [
    {
      "inputs": [
        {
          "internalType": "address",
          "name": "_initialOwner",
          "type": "address"
        },
        {
          "internalType": "string",
          "name": "_genesisNftUri",
          "type": "string"
        },
        {
          "internalType": "bytes32",
          "name": "_merkleRoot",
          "type": "bytes32"
        }
      ],
      "stateMutability": "nonpayable",
      "type": "constructor"
    },
    {
      "inputs": [],
      "name": "ERC721EnumerableForbiddenBatchMint",
      "type": "error"
    },
    {
      "inputs": [
        {
          "internalType": "address",
          "name": "sender",
          "type": "address"
        },
        {
          "internalType": "uint256",
          "name": "tokenId",
          "type": "uint256"
        },
        {
          "internalType": "address",
          "name": "owner",
          "type": "address"
        }
      ],
      "name": "ERC721IncorrectOwner",
      "type": "error"
    },
    {
      "inputs": [
        {
          "internalType": "address",
          "name": "operator",
          "type": "address"
        },
        {
          "internalType": "uint256",
          "name": "tokenId",
          "type": "uint256"
        }
      ],
      "name": "ERC721InsufficientApproval",
      "type": "error"
    },
    {
      "inputs": [
        {
          "internalType": "address",
          "name": "approver",
          "type": "address"
        }
      ],
      "name": "ERC721InvalidApprover",
      "type": "error"
    },
    {
      "inputs": [
        {
          "internalType": "address",
          "name": "operator",
          "type": "address"
        }
      ],
      "name": "ERC721InvalidOperator",
      "type": "error"
    },
    {
      "inputs": [
        {
          "internalType": "address",
          "name": "owner",
          "type": "address"
        }
      ],
      "name": "ERC721InvalidOwner",
      "type": "error"
    },
    {
      "inputs": [
        {
          "internalType": "address",
          "name": "receiver",
          "type": "address"
        }
      ],
      "name": "ERC721InvalidReceiver",
      "type": "error"
    },
    {
      "inputs": [
        {
          "internalType": "address",
          "name": "sender",
          "type": "address"
        }
      ],
      "name": "ERC721InvalidSender",
      "type": "error"
    },
    {
      "inputs": [
        {
          "internalType": "uint256",
          "name": "tokenId",
          "type": "uint256"
        }
      ],
      "name": "ERC721NonexistentToken",
      "type": "error"
    },
    {
      "inputs": [
        {
          "internalType": "address",
          "name": "owner",
          "type": "address"
        },
        {
          "internalType": "uint256",
          "name": "index",
          "type": "uint256"
        }
      ],
      "name": "ERC721OutOfBoundsIndex",
      "type": "error"
    },
    {
      "inputs": [
        {
          "internalType": "address",
          "name": "owner",
          "type": "address"
        }
      ],
      "name": "OwnableInvalidOwner",
      "type": "error"
    },
    {
      "inputs": [
        {
          "internalType": "address",
          "name": "account",
          "type": "address"
        }
      ],
      "name": "OwnableUnauthorizedAccount",
      "type": "error"
    },
    {
      "anonymous": false,
      "inputs": [
        {
          "indexed": true,
          "internalType": "address",
          "name": "owner",
          "type": "address"
        },
        {
          "indexed": true,
          "internalType": "address",
          "name": "approved",
          "type": "address"
        },
        {
          "indexed": true,
          "internalType": "uint256",
          "name": "tokenId",
          "type": "uint256"
        }
      ],
      "name": "Approval",
      "type": "event"
    },
    {
      "anonymous": false,
      "inputs": [
        {
          "indexed": true,
          "internalType": "address",
          "name": "owner",
          "type": "address"
        },
        {
          "indexed": true,
          "internalType": "address",
          "name": "operator",
          "type": "address"
        },
        {
          "indexed": false,
          "internalType": "bool",
          "name": "approved",
          "type": "bool"
        }
      ],
      "name": "ApprovalForAll",
      "type": "event"
    },
    {
      "anonymous": false,
      "inputs": [
        {
          "indexed": false,
          "internalType": "uint256",
          "name": "_fromTokenId",
          "type": "uint256"
        },
        {
          "indexed": false,
          "internalType": "uint256",
          "name": "_toTokenId",
          "type": "uint256"
        }
      ],
      "name": "BatchMetadataUpdate",
      "type": "event"
    },
    {
      "anonymous": false,
      "inputs": [
        {
          "indexed": true,
          "internalType": "address",
          "name": "owner",
          "type": "address"
        },
        {
          "indexed": true,
          "internalType": "uint256",
          "name": "tokenId",
          "type": "uint256"
        }
      ],
      "name": "CertificationBurned",
      "type": "event"
    },
    {
      "anonymous": false,
      "inputs": [
        {
          "indexed": true,
          "internalType": "address",
          "name": "owner",
          "type": "address"
        },
        {
          "indexed": true,
          "internalType": "uint256",
          "name": "tokenId",
          "type": "uint256"
        },
        {
          "indexed": false,
          "internalType": "string",
          "name": "metadataCid",
          "type": "string"
        }
      ],
      "name": "CertificationMinted",
      "type": "event"
    },
    {
      "anonymous": false,
      "inputs": [
        {
          "indexed": true,
          "internalType": "address",
          "name": "payer",
          "type": "address"
        },
        {
          "indexed": false,
          "internalType": "uint256",
          "name": "amount",
          "type": "uint256"
        }
      ],
      "name": "GenerationPayed",
      "type": "event"
    },
    {
      "anonymous": false,
      "inputs": [
        {
          "indexed": true,
          "internalType": "address",
          "name": "user",
          "type": "address"
        },
        {
          "indexed": false,
          "internalType": "bool",
          "name": "isMember",
          "type": "bool"
        }
      ],
      "name": "MemberlistModified",
      "type": "event"
    },
    {
      "anonymous": false,
      "inputs": [
        {
          "indexed": false,
          "internalType": "uint256",
          "name": "_tokenId",
          "type": "uint256"
        }
      ],
      "name": "MetadataUpdate",
      "type": "event"
    },
    {
      "anonymous": false,
      "inputs": [
        {
          "indexed": true,
          "internalType": "address",
          "name": "previousOwner",
          "type": "address"
        },
        {
          "indexed": true,
          "internalType": "address",
          "name": "newOwner",
          "type": "address"
        }
      ],
      "name": "OwnershipTransferred",
      "type": "event"
    },
    {
      "anonymous": false,
      "inputs": [
        {
          "indexed": true,
          "internalType": "address",
          "name": "from",
          "type": "address"
        },
        {
          "indexed": true,
          "internalType": "address",
          "name": "to",
          "type": "address"
        },
        {
          "indexed": true,
          "internalType": "uint256",
          "name": "tokenId",
          "type": "uint256"
        }
      ],
      "name": "Transfer",
      "type": "event"
    },
    {
      "stateMutability": "payable",
      "type": "fallback"
    },
    {
      "inputs": [
        {
          "internalType": "address",
          "name": "to",
          "type": "address"
        },
        {
          "internalType": "uint256",
          "name": "tokenId",
          "type": "uint256"
        }
      ],
      "name": "approve",
      "outputs": [],
      "stateMutability": "nonpayable",
      "type": "function"
    },
    {
      "inputs": [
        {
          "internalType": "address",
          "name": "owner",
          "type": "address"
        }
      ],
      "name": "balanceOf",
      "outputs": [
        {
          "internalType": "uint256",
          "name": "",
          "type": "uint256"
        }
      ],
      "stateMutability": "view",
      "type": "function"
    },
    {
      "inputs": [
        {
          "internalType": "uint256",
          "name": "tokenId",
          "type": "uint256"
        }
      ],
      "name": "burn",
      "outputs": [],
      "stateMutability": "nonpayable",
      "type": "function"
    },
    {
      "inputs": [],
      "name": "contractBalance",
      "outputs": [
        {
          "internalType": "uint256",
          "name": "",
          "type": "uint256"
        }
      ],
      "stateMutability": "view",
      "type": "function"
    },
    {
      "inputs": [
        {
          "internalType": "uint256",
          "name": "_tokenId",
          "type": "uint256"
        }
      ],
      "name": "deleteCertificationToken",
      "outputs": [],
      "stateMutability": "nonpayable",
      "type": "function"
    },
    {
      "inputs": [],
      "name": "generationValue",
      "outputs": [
        {
          "internalType": "uint256",
          "name": "",
          "type": "uint256"
        }
      ],
      "stateMutability": "view",
      "type": "function"
    },
    {
      "inputs": [
        {
          "internalType": "uint256",
          "name": "tokenId",
          "type": "uint256"
        }
      ],
      "name": "getApproved",
      "outputs": [
        {
          "internalType": "address",
          "name": "",
          "type": "address"
        }
      ],
      "stateMutability": "view",
      "type": "function"
    },
    {
      "inputs": [
        {
          "internalType": "address",
          "name": "_address",
          "type": "address"
        }
      ],
      "name": "hasAddressGenerated",
      "outputs": [
        {
          "internalType": "bool",
          "name": "",
          "type": "bool"
        }
      ],
      "stateMutability": "view",
      "type": "function"
    },
    {
      "inputs": [
        {
          "internalType": "address",
          "name": "_address",
          "type": "address"
        }
      ],
      "name": "hasAddressMintedCertification",
      "outputs": [
        {
          "internalType": "bool",
          "name": "",
          "type": "bool"
        }
      ],
      "stateMutability": "view",
      "type": "function"
    },
    {
      "inputs": [
        {
          "internalType": "address",
          "name": "owner",
          "type": "address"
        },
        {
          "internalType": "address",
          "name": "operator",
          "type": "address"
        }
      ],
      "name": "isApprovedForAll",
      "outputs": [
        {
          "internalType": "bool",
          "name": "",
          "type": "bool"
        }
      ],
      "stateMutability": "view",
      "type": "function"
    },
    {
      "inputs": [],
      "name": "memberMerkleRoot",
      "outputs": [
        {
          "internalType": "bytes32",
          "name": "",
          "type": "bytes32"
        }
      ],
      "stateMutability": "view",
      "type": "function"
    },
    {
      "inputs": [
        {
          "internalType": "string",
          "name": "_uri",
          "type": "string"
        }
      ],
      "name": "mintCertification",
      "outputs": [
        {
          "internalType": "uint256",
          "name": "",
          "type": "uint256"
        }
      ],
      "stateMutability": "nonpayable",
      "type": "function"
    },
    {
      "inputs": [
        {
          "internalType": "string",
          "name": "_uri",
          "type": "string"
        }
      ],
      "name": "mintCertificationPayed",
      "outputs": [
        {
          "internalType": "uint256",
          "name": "",
          "type": "uint256"
        }
      ],
      "stateMutability": "payable",
      "type": "function"
    },
    {
      "inputs": [],
      "name": "mintCertificationValue",
      "outputs": [
        {
          "internalType": "uint256",
          "name": "",
          "type": "uint256"
        }
      ],
      "stateMutability": "view",
      "type": "function"
    },
    {
      "inputs": [],
      "name": "mintGeneration",
      "outputs": [
        {
          "internalType": "bool",
          "name": "",
          "type": "bool"
        }
      ],
      "stateMutability": "payable",
      "type": "function"
    },
    {
      "inputs": [],
      "name": "name",
      "outputs": [
        {
          "internalType": "string",
          "name": "",
          "type": "string"
        }
      ],
      "stateMutability": "view",
      "type": "function"
    },
    {
      "inputs": [],
      "name": "owner",
      "outputs": [
        {
          "internalType": "address",
          "name": "",
          "type": "address"
        }
      ],
      "stateMutability": "view",
      "type": "function"
    },
    {
      "inputs": [
        {
          "internalType": "uint256",
          "name": "tokenId",
          "type": "uint256"
        }
      ],
      "name": "ownerOf",
      "outputs": [
        {
          "internalType": "address",
          "name": "",
          "type": "address"
        }
      ],
      "stateMutability": "view",
      "type": "function"
    },
    {
      "inputs": [],
      "name": "renounceOwnership",
      "outputs": [],
      "stateMutability": "nonpayable",
      "type": "function"
    },
    {
      "inputs": [
        {
          "internalType": "address",
          "name": "from",
          "type": "address"
        },
        {
          "internalType": "address",
          "name": "to",
          "type": "address"
        },
        {
          "internalType": "uint256",
          "name": "tokenId",
          "type": "uint256"
        }
      ],
      "name": "safeTransferFrom",
      "outputs": [],
      "stateMutability": "nonpayable",
      "type": "function"
    },
    {
      "inputs": [
        {
          "internalType": "address",
          "name": "from",
          "type": "address"
        },
        {
          "internalType": "address",
          "name": "to",
          "type": "address"
        },
        {
          "internalType": "uint256",
          "name": "tokenId",
          "type": "uint256"
        },
        {
          "internalType": "bytes",
          "name": "data",
          "type": "bytes"
        }
      ],
      "name": "safeTransferFrom",
      "outputs": [],
      "stateMutability": "nonpayable",
      "type": "function"
    },
    {
      "inputs": [
        {
          "internalType": "address",
          "name": "operator",
          "type": "address"
        },
        {
          "internalType": "bool",
          "name": "approved",
          "type": "bool"
        }
      ],
      "name": "setApprovalForAll",
      "outputs": [],
      "stateMutability": "nonpayable",
      "type": "function"
    },
    {
      "inputs": [
        {
          "internalType": "uint256",
          "name": "_newPrice",
          "type": "uint256"
        },
        {
          "internalType": "bytes32[]",
          "name": "_proof",
          "type": "bytes32[]"
        }
      ],
      "name": "setGenerationValue",
      "outputs": [],
      "stateMutability": "nonpayable",
      "type": "function"
    },
    {
      "inputs": [
        {
          "internalType": "bytes32",
          "name": "_merkleRoot",
          "type": "bytes32"
        }
      ],
      "name": "setMerkleRoot",
      "outputs": [],
      "stateMutability": "nonpayable",
      "type": "function"
    },
    {
      "inputs": [
        {
          "internalType": "uint256",
          "name": "_newPrice",
          "type": "uint256"
        },
        {
          "internalType": "bytes32[]",
          "name": "_proof",
          "type": "bytes32[]"
        }
      ],
      "name": "setMintCertificationValue",
      "outputs": [],
      "stateMutability": "nonpayable",
      "type": "function"
    },
    {
      "inputs": [
        {
          "internalType": "bytes4",
          "name": "_interfaceId",
          "type": "bytes4"
        }
      ],
      "name": "supportsInterface",
      "outputs": [
        {
          "internalType": "bool",
          "name": "",
          "type": "bool"
        }
      ],
      "stateMutability": "view",
      "type": "function"
    },
    {
      "inputs": [],
      "name": "symbol",
      "outputs": [
        {
          "internalType": "string",
          "name": "",
          "type": "string"
        }
      ],
      "stateMutability": "view",
      "type": "function"
    },
    {
      "inputs": [
        {
          "internalType": "uint256",
          "name": "index",
          "type": "uint256"
        }
      ],
      "name": "tokenByIndex",
      "outputs": [
        {
          "internalType": "uint256",
          "name": "",
          "type": "uint256"
        }
      ],
      "stateMutability": "view",
      "type": "function"
    },
    {
      "inputs": [
        {
          "internalType": "address",
          "name": "owner",
          "type": "address"
        },
        {
          "internalType": "uint256",
          "name": "index",
          "type": "uint256"
        }
      ],
      "name": "tokenOfOwnerByIndex",
      "outputs": [
        {
          "internalType": "uint256",
          "name": "",
          "type": "uint256"
        }
      ],
      "stateMutability": "view",
      "type": "function"
    },
    {
      "inputs": [
        {
          "internalType": "uint256",
          "name": "_tokenId",
          "type": "uint256"
        }
      ],
      "name": "tokenURI",
      "outputs": [
        {
          "internalType": "string",
          "name": "",
          "type": "string"
        }
      ],
      "stateMutability": "view",
      "type": "function"
    },
    {
      "inputs": [],
      "name": "totalSupply",
      "outputs": [
        {
          "internalType": "uint256",
          "name": "",
          "type": "uint256"
        }
      ],
      "stateMutability": "view",
      "type": "function"
    },
    {
      "inputs": [
        {
          "internalType": "address",
          "name": "from",
          "type": "address"
        },
        {
          "internalType": "address",
          "name": "to",
          "type": "address"
        },
        {
          "internalType": "uint256",
          "name": "tokenId",
          "type": "uint256"
        }
      ],
      "name": "transferFrom",
      "outputs": [],
      "stateMutability": "nonpayable",
      "type": "function"
    },
    {
      "inputs": [
        {
          "internalType": "address",
          "name": "newOwner",
          "type": "address"
        }
      ],
      "name": "transferOwnership",
      "outputs": [],
      "stateMutability": "nonpayable",
      "type": "function"
    },
    {
      "inputs": [
        {
          "internalType": "address payable",
          "name": "_to",
          "type": "address"
        },
        {
          "internalType": "uint256",
          "name": "_amount",
          "type": "uint256"
        },
        {
          "internalType": "bytes32[]",
          "name": "_proof",
          "type": "bytes32[]"
        }
      ],
      "name": "withdrawValue",
      "outputs": [],
      "stateMutability": "nonpayable",
      "type": "function"
    },
    {
      "stateMutability": "payable",
      "type": "receive"
    }
  ],
  "bytecode": "0x608060405265246139ca8000600e5565b5e620f48000600f55348015610023575f5ffd5b50604051612dc0380380612dc0833981016040819052610042916109d9565b826040518060400160405280600981526020016826b4b73231b430b4b760b91b8152506040518060400160405280600381526020016226a22760e91b815250815f908161008f9190610b2f565b50600161009c8282610b2f565b5050506001600160a01b0381166100cd57604051631e4fbdf760e01b81525f60048201526024015b60405180910390fd5b6100d68161011d565b5060128190556100e58261016e565b505f306001600160a01b03165f516020612da05f395f51905f528460405161010d9190610c17565b60405180910390a3505050610cfa565b600b80546001600160a01b038381166001600160a01b0319831681179093556040519116919082907f8be0079c531659141344cd1fd0a4f28419497f9722a3daafe3b4186f6b6457e0905f90a35050565b600d80545f918291908261018183610c44565b90915550905061019133826101e2565b61019b8184610205565b335f8181526010602052604090819020805460ff19166001179055518291905f516020612da05f395f51905f52906101d4908790610c17565b60405180910390a392915050565b610201828260405180602001604052805f81525061025460201b60201c565b5050565b5f828152600a6020526040902061021c8282610b2f565b506040518281527ff8e1a15aba9398e019f0b49df1a4fde98ee17ae345cb5f6b5e2c27f5033e8ce79060200160405180910390a15050565b61025e8383610270565b61026b335f8585856102d1565b505050565b6001600160a01b03821661029957604051633250574960e11b81525f60048201526024016100c4565b5f6102a58383836103f9565b90506001600160a01b0381161561026b576040516339e3563760e11b81525f60048201526024016100c4565b6001600160a01b0383163b156103f257604051630a85bd0160e11b81526001600160a01b0384169063150b7a0290610313908890889087908790600401610c5c565b6020604051808303815f875af192505050801561034d575060408051601f3d908101601f1916820190925261034a91810190610c98565b60015b6103b4573d80801561037a576040519150601f19603f3d011682016040523d82523d5f602084013e61037f565b606091505b5080515f036103ac57604051633250574960e11b81526001600160a01b03851660048201526024016100c4565b805160208201fd5b6001600160e01b03198116630a85bd0160e11b146103f057604051633250574960e11b81526001600160a01b03851660048201526024016100c4565b505b5050505050565b5f61040584848461040d565b949350505050565b5f8061041a8585856104d8565b90506001600160a01b0381166104765761047184600880545f838152600960205260408120829055600182018355919091527ff3f7a9fe364faab93b216da50a3214154f22a0a2b415b23a84c8169e8b636ee30155565b610499565b846001600160a01b0316816001600160a01b0316146104995761049981856105ca565b6001600160a01b0385166104b5576104b084610647565b610405565b846001600160a01b0316816001600160a01b0316146104055761040585856106ee565b5f828152600260205260408120546001600160a01b03908116908316156105045761050481848661073c565b6001600160a01b0381161561053e5761051f5f8581806107a0565b6001600160a01b0381165f90815260036020526040902080545f190190555b6001600160a01b0385161561056c576001600160a01b0385165f908152600360205260409020805460010190555b5f8481526002602052604080822080546001600160a01b0319166001600160a01b0389811691821790925591518793918516917fddf252ad1be2c89b69c2b068fc378daa952ba7f163c4a11628f55a4df523b3ef91a4949350505050565b5f6105d4836108c2565b5f838152600760209081526040808320546001600160a01b0388168452600690925290912091925090818314610629575f83815260208281526040808320548584528184208190558352600790915290208290555b5f938452600760209081526040808620869055938552525081205550565b6008545f9061065890600190610cbf565b5f838152600960205260408120546008805493945090928490811061067f5761067f610cd2565b905f5260205f2001549050806008838154811061069e5761069e610cd2565b5f9182526020808320909101929092558281526009909152604080822084905585825281205560088054806106d5576106d5610ce6565b600190038181905f5260205f20015f9055905550505050565b5f60016106fa846108c2565b6107049190610cbf565b6001600160a01b039093165f908152600660209081526040808320868452825280832085905593825260079052919091209190915550565b610747838383610907565b61026b576001600160a01b03831661077557604051637e27328960e01b8152600481018290526024016100c4565b60405163177e802f60e01b81526001600160a01b0383166004820152602481018290526044016100c4565b80806107b457506001600160a01b03821615155b15610893575f6107c384610987565b90506001600160a01b038316158015906107ef5750826001600160a01b0316816001600160a01b031614155b801561082057506001600160a01b038082165f9081526005602090815260408083209387168352929052205460ff16155b156108495760405163a9fbf51f60e01b81526001600160a01b03841660048201526024016100c4565b81156108915783856001600160a01b0316826001600160a01b03167f8c5be1e5ebec7d5bd14f71427d1e84f3dd0314c0f7b2291e5b200ac8c7c3b92560405160405180910390a45b505b50505f90815260046020526040902080546001600160a01b0319166001600160a01b0392909216919091179055565b5f6001600160a01b0382166108ec576040516322718ad960e21b81525f60048201526024016100c4565b506001600160a01b03165f9081526003602052604090205490565b5f6001600160a01b038316158015906104055750826001600160a01b0316846001600160a01b0316148061095f57506001600160a01b038085165f9081526005602090815260408083209387168352929052205460ff165b806104055750505f908152600460205260409020546001600160a01b03908116911614919050565b5f818152600260205260408120546001600160a01b0316806109bf57604051637e27328960e01b8152600481018490526024016100c4565b92915050565b634e487b7160e01b5f52604160045260245ffd5b5f5f5f606084860312156109eb575f5ffd5b83516001600160a01b0381168114610a01575f5ffd5b60208501519093506001600160401b03811115610a1c575f5ffd5b8401601f81018613610a2c575f5ffd5b80516001600160401b03811115610a4557610a456109c5565b604051601f8201601f19908116603f011681016001600160401b0381118282101715610a7357610a736109c5565b604052818152828201602001881015610a8a575f5ffd5b8160208401602083015e5f91810160200191909152604095909501519396949550929392505050565b600181811c90821680610ac757607f821691505b602082108103610ae557634e487b7160e01b5f52602260045260245ffd5b50919050565b601f82111561026b57805f5260205f20601f840160051c81016020851015610b105750805b601f840160051c820191505b818110156103f2575f8155600101610b1c565b81516001600160401b03811115610b4857610b486109c5565b610b5c81610b568454610ab3565b84610aeb565b6020601f821160018114610b8e575f8315610b775750848201515b5f19600385901b1c1916600184901b1784556103f2565b5f84815260208120601f198516915b82811015610bbd5787850151825560209485019460019092019101610b9d565b5084821015610bda57868401515f19600387901b60f8161c191681555b50505050600190811b01905550565b5f81518084528060208401602086015e5f602082860101526020601f19601f83011685010191505092915050565b602081525f610c296020830184610be9565b9392505050565b634e487b7160e01b5f52601160045260245ffd5b5f60018201610c5557610c55610c30565b5060010190565b6001600160a01b03858116825284166020820152604081018390526080606082018190525f90610c8e90830184610be9565b9695505050505050565b5f60208284031215610ca8575f5ffd5b81516001600160e01b031981168114610c29575f5ffd5b818103818111156109bf576109bf610c30565b634e487b7160e01b5f52603260045260245ffd5b634e487b7160e01b5f52603160045260245ffd5b61209980610d075f395ff3fe6080604052600436106101fc575f3560e01c806370a082311161010c5780638da5cb5b1161009f578063b88d4fde1161006e578063b88d4fde146105af578063c87b56dd146105ce578063e985e9c5146105ed578063f026c0e51461060c578063f2fde38b1461062b5761021a565b80638da5cb5b1461054057806390d5a48c1461055d57806395d89b411461057c578063a22cb465146105905761021a565b80637d7bf8c0116100db5780637d7bf8c0146104c057806385f0ad84146104df57806389c66a1c146104f45780638b7afe2e1461052b5761021a565b806370a0823114610459578063715018a61461047857806373a551501461048c5780637cb64759146104a15761021a565b806323b872dd1161018f57806342966c681161015e57806342966c68146103b25780634f6ccce7146103d15780635403c7d2146103f057806359b5a113146104035780636352211e1461043a5761021a565b806323b872dd146103365780632f745c59146103555780633b6865681461037457806342842e0e146103935761021a565b806308b4bba2116101cb57806308b4bba2146102bf578063095ea7b3146102ec5780630e2bc1811461030d57806318160ddd146103225761021a565b806301ffc9a71461022b5780630473dc4c1461025f57806306fdde0314610267578063081812fc146102885761021a565b3661021a5734600c5f8282546102129190611a55565b925050819055005b34600c5f8282546102129190611a55565b348015610236575f5ffd5b5061024a610245366004611a7d565b61064a565b60405190151581526020015b60405180910390f35b61024a61065a565b348015610272575f5ffd5b5061027b61072e565b6040516102569190611ac6565b348015610293575f5ffd5b506102a76102a2366004611ad8565b6107bd565b6040516001600160a01b039091168152602001610256565b3480156102ca575f5ffd5b506102de6102d9366004611b7a565b6107e4565b604051908152602001610256565b3480156102f7575f5ffd5b5061030b610306366004611bd3565b61086b565b005b348015610318575f5ffd5b506102de600e5481565b34801561032d575f5ffd5b506008546102de565b348015610341575f5ffd5b5061030b610350366004611bfd565b61087a565b348015610360575f5ffd5b506102de61036f366004611bd3565b610903565b34801561037f575f5ffd5b5061030b61038e366004611c83565b610966565b34801561039e575f5ffd5b5061030b6103ad366004611bfd565b61099b565b3480156103bd575f5ffd5b5061030b6103cc366004611ad8565b6109ba565b3480156103dc575f5ffd5b506102de6103eb366004611ad8565b6109c5565b6102de6103fe366004611b7a565b610a1a565b34801561040e575f5ffd5b5061024a61041d366004611ccb565b6001600160a01b03165f9081526011602052604090205460ff1690565b348015610445575f5ffd5b506102a7610454366004611ad8565b610aa8565b348015610464575f5ffd5b506102de610473366004611ccb565b610ab2565b348015610483575f5ffd5b5061030b610af7565b348015610497575f5ffd5b506102de600f5481565b3480156104ac575f5ffd5b5061030b6104bb366004611ad8565b610b0a565b3480156104cb575f5ffd5b5061030b6104da366004611ce6565b610b17565b3480156104ea575f5ffd5b506102de60125481565b3480156104ff575f5ffd5b5061024a61050e366004611ccb565b6001600160a01b03165f9081526010602052604090205460ff1690565b348015610536575f5ffd5b506102de600c5481565b34801561054b575f5ffd5b50600b546001600160a01b03166102a7565b348015610568575f5ffd5b5061030b610577366004611c83565b610bd2565b348015610587575f5ffd5b5061027b610c07565b34801561059b575f5ffd5b5061030b6105aa366004611d3e565b610c16565b3480156105ba575f5ffd5b5061030b6105c9366004611d79565b610c21565b3480156105d9575f5ffd5b5061027b6105e8366004611ad8565b610c39565b3480156105f8575f5ffd5b5061024a610607366004611df4565b610c44565b348015610617575f5ffd5b5061030b610626366004611ad8565b610c71565b348015610636575f5ffd5b5061030b610645366004611ccb565b610d08565b5f61065482610d45565b92915050565b5f600f5434146106bf5760405162461bcd60e51b815260206004820152602560248201527f466f6e6420696e737566666973616e7420706f7572206c612067c3a96ec3a97260448201526430ba34b7b760d91b60648201526084015b60405180910390fd5b34600c5f8282546106d09190611a55565b9091555050335f8181526011602052604090819020805460ff19166001179055517ff4e5ffadf9246e7253f702d2a24565213a3264a90471706d2258d871c450c442906107209034815260200190565b60405180910390a250600190565b60605f805461073c90611e20565b80601f016020809104026020016040519081016040528092919081815260200182805461076890611e20565b80156107b35780601f1061078a576101008083540402835291602001916107b3565b820191905f5260205f20905b81548152906001019060200180831161079657829003601f168201915b5050505050905090565b5f6107c782610d69565b505f828152600460205260409020546001600160a01b0316610654565b600d80545f91829190826107f783611e58565b9190505590506108073382610da1565b6108118184610dba565b335f8181526010602052604090819020805460ff19166001179055518291907f677f39e37c8426158e48858e2e60912168028157ae05ec851a2d057722d53f829061085d908790611ac6565b60405180910390a392915050565b610876828233610e09565b5050565b6001600160a01b0382166108a357604051633250574960e11b81525f60048201526024016106b6565b5f6108af838333610e16565b9050836001600160a01b0316816001600160a01b0316146108fd576040516364283d7b60e01b81526001600160a01b03808616600483015260248201849052821660448201526064016106b6565b50505050565b5f61090d83610ab2565b821061093e5760405163295f44f760e21b81526001600160a01b0384166004820152602481018390526044016106b6565b506001600160a01b03919091165f908152600660209081526040808320938352929052205490565b8181610973338383610e2a565b61098f5760405162461bcd60e51b81526004016106b690611e70565b505050600e9190915550565b6109b583838360405180602001604052805f815250610c21565b505050565b6108765f8233610e16565b5f6109cf60085490565b82106109f75760405163295f44f760e21b81525f6004820152602481018390526044016106b6565b60088281548110610a0a57610a0a611ea7565b905f5260205f2001549050919050565b5f600e543414610a805760405162461bcd60e51b815260206004820152602b60248201527f466f6e6420696e737566666973616e7420706f7572206c65206d696e7420647560448201526a0818d95c9d1a599a58d85d60aa1b60648201526084016106b6565b34600c5f828254610a919190611a55565b909155505f9050610aa1836107e4565b9392505050565b5f61065482610d69565b5f6001600160a01b038216610adc576040516322718ad960e21b81525f60048201526024016106b6565b506001600160a01b03165f9081526003602052604090205490565b610aff610ec0565b610b085f610eed565b565b610b12610ec0565b601255565b8181610b24338383610e2a565b610b405760405162461bcd60e51b81526004016106b690611e70565b4780861115610b885760405162461bcd60e51b815260206004820152601460248201527342616c616e636520696e737566666973616e746560601b60448201526064016106b6565b6040516001600160a01b0388169087156108fc029088905f818181858888f19350505050158015610bbb573d5f5f3e3d5ffd5b50610bc68682611ebb565b600c5550505050505050565b8181610bdf338383610e2a565b610bfb5760405162461bcd60e51b81526004016106b690611e70565b505050600f9190915550565b60606001805461073c90611e20565b610876338383610f3e565b610c2c84848461087a565b6108fd3385858585610fdc565b606061065482611104565b6001600160a01b039182165f90815260056020908152604080832093909416825291909152205460ff1690565b610c7a81610aa8565b6001600160a01b0316336001600160a01b031614610cd05760405162461bcd60e51b81526020600482015260136024820152722737ba103a3432903a37b5b2b71037bbb732b960691b60448201526064016106b6565b610cd9816109ba565b604051819033907f7c13894368dd0fc356ad757f1c59d1c03332444cabeec817e58073e14a074fc2905f90a350565b610d10610ec0565b6001600160a01b038116610d3957604051631e4fbdf760e01b81525f60048201526024016106b6565b610d4281610eed565b50565b5f6001600160e01b03198216632483248360e11b1480610654575061065482611207565b5f818152600260205260408120546001600160a01b03168061065457604051637e27328960e01b8152600481018490526024016106b6565b610876828260405180602001604052805f81525061122b565b5f828152600a60205260409020610dd18282611f12565b506040518281527ff8e1a15aba9398e019f0b49df1a4fde98ee17ae345cb5f6b5e2c27f5033e8ce79060200160405180910390a15050565b6109b58383836001611242565b5f610e22848484611346565b949350505050565b604080516001600160a01b03851660208201525f9182910160408051601f1981840301815282825280516020918201209083015201604051602081830303815290604052805190602001209050610eb78484808060200260200160405190810160405280939291908181526020018383602002808284375f92019190915250506012549150849050611411565b95945050505050565b600b546001600160a01b03163314610b085760405163118cdaa760e01b81523360048201526024016106b6565b600b80546001600160a01b038381166001600160a01b0319831681179093556040519116919082907f8be0079c531659141344cd1fd0a4f28419497f9722a3daafe3b4186f6b6457e0905f90a35050565b6001600160a01b038216610f7057604051630b61174360e31b81526001600160a01b03831660048201526024016106b6565b6001600160a01b038381165f81815260056020908152604080832094871680845294825291829020805460ff191686151590811790915591519182527f17307eab39ab6107e8899845ad3d59bd9653f200f220920489ca2b5937696c31910160405180910390a3505050565b6001600160a01b0383163b156110fd57604051630a85bd0160e11b81526001600160a01b0384169063150b7a029061101e908890889087908790600401611fcd565b6020604051808303815f875af1925050508015611058575060408051601f3d908101601f1916820190925261105591810190612009565b60015b6110bf573d808015611085576040519150601f19603f3d011682016040523d82523d5f602084013e61108a565b606091505b5080515f036110b757604051633250574960e11b81526001600160a01b03851660048201526024016106b6565b805160208201fd5b6001600160e01b03198116630a85bd0160e11b146110fb57604051633250574960e11b81526001600160a01b03851660048201526024016106b6565b505b5050505050565b606061110f82610d69565b505f828152600a60205260408120805461112890611e20565b80601f016020809104026020016040519081016040528092919081815260200182805461115490611e20565b801561119f5780601f106111765761010080835404028352916020019161119f565b820191905f5260205f20905b81548152906001019060200180831161118257829003601f168201915b505050505090505f6111bb60408051602081019091525f815290565b905080515f036111cc575092915050565b8151156111fe5780826040516020016111e692919061203b565b60405160208183030381529060405292505050919050565b610e2284611426565b5f6001600160e01b0319821663780e9d6360e01b1480610654575061065482611496565b61123583836114e5565b6109b5335f858585610fdc565b808061125657506001600160a01b03821615155b15611317575f61126584610d69565b90506001600160a01b038316158015906112915750826001600160a01b0316816001600160a01b031614155b80156112a457506112a28184610c44565b155b156112cd5760405163a9fbf51f60e01b81526001600160a01b03841660048201526024016106b6565b81156113155783856001600160a01b0316826001600160a01b03167f8c5be1e5ebec7d5bd14f71427d1e84f3dd0314c0f7b2291e5b200ac8c7c3b92560405160405180910390a45b505b50505f90815260046020526040902080546001600160a01b0319166001600160a01b0392909216919091179055565b5f5f611353858585611546565b90506001600160a01b0381166113af576113aa84600880545f838152600960205260408120829055600182018355919091527ff3f7a9fe364faab93b216da50a3214154f22a0a2b415b23a84c8169e8b636ee30155565b6113d2565b846001600160a01b0316816001600160a01b0316146113d2576113d28185611638565b6001600160a01b0385166113ee576113e9846116b5565b610e22565b846001600160a01b0316816001600160a01b031614610e2257610e22858561175c565b5f8261141d85846117aa565b14949350505050565b606061143182610d69565b505f61144760408051602081019091525f815290565b90505f8151116114655760405180602001604052805f815250610aa1565b8061146f846117ec565b60405160200161148092919061203b565b6040516020818303038152906040529392505050565b5f6001600160e01b031982166380ac58cd60e01b14806114c657506001600160e01b03198216635b5e139f60e01b145b8061065457506301ffc9a760e01b6001600160e01b0319831614610654565b6001600160a01b03821661150e57604051633250574960e11b81525f60048201526024016106b6565b5f61151a83835f610e16565b90506001600160a01b038116156109b5576040516339e3563760e11b81525f60048201526024016106b6565b5f828152600260205260408120546001600160a01b03908116908316156115725761157281848661187c565b6001600160a01b038116156115ac5761158d5f855f5f611242565b6001600160a01b0381165f90815260036020526040902080545f190190555b6001600160a01b038516156115da576001600160a01b0385165f908152600360205260409020805460010190555b5f8481526002602052604080822080546001600160a01b0319166001600160a01b0389811691821790925591518793918516917fddf252ad1be2c89b69c2b068fc378daa952ba7f163c4a11628f55a4df523b3ef91a4949350505050565b5f61164283610ab2565b5f838152600760209081526040808320546001600160a01b0388168452600690925290912091925090818314611697575f83815260208281526040808320548584528184208190558352600790915290208290555b5f938452600760209081526040808620869055938552525081205550565b6008545f906116c690600190611ebb565b5f83815260096020526040812054600880549394509092849081106116ed576116ed611ea7565b905f5260205f2001549050806008838154811061170c5761170c611ea7565b5f9182526020808320909101929092558281526009909152604080822084905585825281205560088054806117435761174361204f565b600190038181905f5260205f20015f9055905550505050565b5f600161176884610ab2565b6117729190611ebb565b6001600160a01b039093165f908152600660209081526040808320868452825280832085905593825260079052919091209190915550565b5f81815b84518110156117e4576117da828683815181106117cd576117cd611ea7565b60200260200101516118e0565b91506001016117ae565b509392505050565b60605f6117f883611909565b60010190505f8167ffffffffffffffff81111561181757611817611aef565b6040519080825280601f01601f191660200182016040528015611841576020820181803683370190505b5090508181016020015b5f19016f181899199a1a9b1b9c1cb0b131b232b360811b600a86061a8153600a850494508461184b57509392505050565b6118878383836119e0565b6109b5576001600160a01b0383166118b557604051637e27328960e01b8152600481018290526024016106b6565b60405163177e802f60e01b81526001600160a01b0383166004820152602481018290526044016106b6565b5f8183106118fa575f828152602084905260409020610aa1565b505f9182526020526040902090565b5f8072184f03e93ff9f4daa797ed6e38ed64bf6a1f0160401b83106119475772184f03e93ff9f4daa797ed6e38ed64bf6a1f0160401b830492506040015b6d04ee2d6d415b85acef81000000008310611973576d04ee2d6d415b85acef8100000000830492506020015b662386f26fc10000831061199157662386f26fc10000830492506010015b6305f5e10083106119a9576305f5e100830492506008015b61271083106119bd57612710830492506004015b606483106119cf576064830492506002015b600a83106106545760010192915050565b5f6001600160a01b03831615801590610e225750826001600160a01b0316846001600160a01b03161480611a195750611a198484610c44565b80610e225750505f908152600460205260409020546001600160a01b03908116911614919050565b634e487b7160e01b5f52601160045260245ffd5b8082018082111561065457610654611a41565b6001600160e01b031981168114610d42575f5ffd5b5f60208284031215611a8d575f5ffd5b8135610aa181611a68565b5f81518084528060208401602086015e5f602082860101526020601f19601f83011685010191505092915050565b602081525f610aa16020830184611a98565b5f60208284031215611ae8575f5ffd5b5035919050565b634e487b7160e01b5f52604160045260245ffd5b5f5f67ffffffffffffffff841115611b1d57611b1d611aef565b50604051601f19601f85018116603f0116810181811067ffffffffffffffff82111715611b4c57611b4c611aef565b604052838152905080828401851015611b63575f5ffd5b838360208301375f60208583010152509392505050565b5f60208284031215611b8a575f5ffd5b813567ffffffffffffffff811115611ba0575f5ffd5b8201601f81018413611bb0575f5ffd5b610e2284823560208401611b03565b6001600160a01b0381168114610d42575f5ffd5b5f5f60408385031215611be4575f5ffd5b8235611bef81611bbf565b946020939093013593505050565b5f5f5f60608486031215611c0f575f5ffd5b8335611c1a81611bbf565b92506020840135611c2a81611bbf565b929592945050506040919091013590565b5f5f83601f840112611c4b575f5ffd5b50813567ffffffffffffffff811115611c62575f5ffd5b6020830191508360208260051b8501011115611c7c575f5ffd5b9250929050565b5f5f5f60408486031215611c95575f5ffd5b83359250602084013567ffffffffffffffff811115611cb2575f5ffd5b611cbe86828701611c3b565b9497909650939450505050565b5f60208284031215611cdb575f5ffd5b8135610aa181611bbf565b5f5f5f5f60608587031215611cf9575f5ffd5b8435611d0481611bbf565b935060208501359250604085013567ffffffffffffffff811115611d26575f5ffd5b611d3287828801611c3b565b95989497509550505050565b5f5f60408385031215611d4f575f5ffd5b8235611d5a81611bbf565b915060208301358015158114611d6e575f5ffd5b809150509250929050565b5f5f5f5f60808587031215611d8c575f5ffd5b8435611d9781611bbf565b93506020850135611da781611bbf565b925060408501359150606085013567ffffffffffffffff811115611dc9575f5ffd5b8501601f81018713611dd9575f5ffd5b611de887823560208401611b03565b91505092959194509250565b5f5f60408385031215611e05575f5ffd5b8235611e1081611bbf565b91506020830135611d6e81611bbf565b600181811c90821680611e3457607f821691505b602082108103611e5257634e487b7160e01b5f52602260045260245ffd5b50919050565b5f60018201611e6957611e69611a41565b5060010190565b60208082526018908201527f43616c6c6572206973206e6f7420616e204d656d6265722e0000000000000000604082015260600190565b634e487b7160e01b5f52603260045260245ffd5b8181038181111561065457610654611a41565b601f8211156109b557805f5260205f20601f840160051c81016020851015611ef35750805b601f840160051c820191505b818110156110fd575f8155600101611eff565b815167ffffffffffffffff811115611f2c57611f2c611aef565b611f4081611f3a8454611e20565b84611ece565b6020601f821160018114611f72575f8315611f5b5750848201515b5f19600385901b1c1916600184901b1784556110fd565b5f84815260208120601f198516915b82811015611fa15787850151825560209485019460019092019101611f81565b5084821015611fbe57868401515f19600387901b60f8161c191681555b50505050600190811b01905550565b6001600160a01b03858116825284166020820152604081018390526080606082018190525f90611fff90830184611a98565b9695505050505050565b5f60208284031215612019575f5ffd5b8151610aa181611a68565b5f81518060208401855e5f93019283525090919050565b5f610e226120498386612024565b84612024565b634e487b7160e01b5f52603160045260245ffdfea2646970667358221220b31d6bc191469bd84800c38ab824c5cccf2ceb77b889d0a28b554fe267fbc4f264736f6c634300081c0033677f39e37c8426158e48858e2e60912168028157ae05ec851a2d057722d53f82",
  "linkReferences": {},
  "deployedLinkReferences": {},
  "immutableReferences": {},
  "inputSourceName": "project/contracts/MindchainContract.sol",
  "buildInfoId": "solc-0_8_28-b7581a698bb7688ea36c97147f1fc35455620d8e"
}